{
  "contractName": "AisthisiToken",
  "abi": [
    {
      "inputs": [],
      "stateMutability": "nonpayable",
      "type": "constructor"
    },
    {
      "anonymous": false,
      "inputs": [
        {
          "indexed": true,
          "internalType": "address",
          "name": "owner",
          "type": "address"
        },
        {
          "indexed": true,
          "internalType": "address",
          "name": "approved",
          "type": "address"
        },
        {
          "indexed": true,
          "internalType": "uint256",
          "name": "tokenId",
          "type": "uint256"
        }
      ],
      "name": "Approval",
      "type": "event"
    },
    {
      "anonymous": false,
      "inputs": [
        {
          "indexed": true,
          "internalType": "address",
          "name": "owner",
          "type": "address"
        },
        {
          "indexed": true,
          "internalType": "address",
          "name": "operator",
          "type": "address"
        },
        {
          "indexed": false,
          "internalType": "bool",
          "name": "approved",
          "type": "bool"
        }
      ],
      "name": "ApprovalForAll",
      "type": "event"
    },
    {
      "anonymous": false,
      "inputs": [
        {
          "indexed": false,
          "internalType": "address",
          "name": "account",
          "type": "address"
        }
      ],
      "name": "Paused",
      "type": "event"
    },
    {
      "anonymous": false,
      "inputs": [
        {
          "indexed": true,
          "internalType": "bytes32",
          "name": "role",
          "type": "bytes32"
        },
        {
          "indexed": true,
          "internalType": "bytes32",
          "name": "previousAdminRole",
          "type": "bytes32"
        },
        {
          "indexed": true,
          "internalType": "bytes32",
          "name": "newAdminRole",
          "type": "bytes32"
        }
      ],
      "name": "RoleAdminChanged",
      "type": "event"
    },
    {
      "anonymous": false,
      "inputs": [
        {
          "indexed": true,
          "internalType": "bytes32",
          "name": "role",
          "type": "bytes32"
        },
        {
          "indexed": true,
          "internalType": "address",
          "name": "account",
          "type": "address"
        },
        {
          "indexed": true,
          "internalType": "address",
          "name": "sender",
          "type": "address"
        }
      ],
      "name": "RoleGranted",
      "type": "event"
    },
    {
      "anonymous": false,
      "inputs": [
        {
          "indexed": true,
          "internalType": "bytes32",
          "name": "role",
          "type": "bytes32"
        },
        {
          "indexed": true,
          "internalType": "address",
          "name": "account",
          "type": "address"
        },
        {
          "indexed": true,
          "internalType": "address",
          "name": "sender",
          "type": "address"
        }
      ],
      "name": "RoleRevoked",
      "type": "event"
    },
    {
      "anonymous": false,
      "inputs": [
        {
          "indexed": false,
          "internalType": "uint256",
          "name": "tokenId",
          "type": "uint256"
        },
        {
          "indexed": false,
          "internalType": "address",
          "name": "unlockerAddress",
          "type": "address"
        }
      ],
      "name": "TokenUnlocked",
      "type": "event"
    },
    {
      "anonymous": false,
      "inputs": [
        {
          "indexed": true,
          "internalType": "address",
          "name": "from",
          "type": "address"
        },
        {
          "indexed": true,
          "internalType": "address",
          "name": "to",
          "type": "address"
        },
        {
          "indexed": true,
          "internalType": "uint256",
          "name": "tokenId",
          "type": "uint256"
        }
      ],
      "name": "Transfer",
      "type": "event"
    },
    {
      "anonymous": false,
      "inputs": [
        {
          "indexed": false,
          "internalType": "address",
          "name": "account",
          "type": "address"
        }
      ],
      "name": "Unpaused",
      "type": "event"
    },
    {
      "inputs": [],
      "name": "DEFAULT_ADMIN_ROLE",
      "outputs": [
        {
          "internalType": "bytes32",
          "name": "",
          "type": "bytes32"
        }
      ],
      "stateMutability": "view",
      "type": "function",
      "constant": true
    },
    {
      "inputs": [],
      "name": "MINTER_ROLE",
      "outputs": [
        {
          "internalType": "bytes32",
          "name": "",
          "type": "bytes32"
        }
      ],
      "stateMutability": "view",
      "type": "function",
      "constant": true
    },
    {
      "inputs": [],
      "name": "PAUSER_ROLE",
      "outputs": [
        {
          "internalType": "bytes32",
          "name": "",
          "type": "bytes32"
        }
      ],
      "stateMutability": "view",
      "type": "function",
      "constant": true
    },
    {
      "inputs": [
        {
          "internalType": "address",
          "name": "to",
          "type": "address"
        },
        {
          "internalType": "uint256",
          "name": "tokenId",
          "type": "uint256"
        }
      ],
      "name": "approve",
      "outputs": [],
      "stateMutability": "nonpayable",
      "type": "function"
    },
    {
      "inputs": [
        {
          "internalType": "address",
          "name": "owner",
          "type": "address"
        }
      ],
      "name": "balanceOf",
      "outputs": [
        {
          "internalType": "uint256",
          "name": "",
          "type": "uint256"
        }
      ],
      "stateMutability": "view",
      "type": "function",
      "constant": true
    },
    {
      "inputs": [
        {
          "internalType": "uint256",
          "name": "tokenId",
          "type": "uint256"
        }
      ],
      "name": "burn",
      "outputs": [],
      "stateMutability": "nonpayable",
      "type": "function"
    },
    {
      "inputs": [
        {
          "internalType": "uint256",
          "name": "tokenId",
          "type": "uint256"
        }
      ],
      "name": "getApproved",
      "outputs": [
        {
          "internalType": "address",
          "name": "",
          "type": "address"
        }
      ],
      "stateMutability": "view",
      "type": "function",
      "constant": true
    },
    {
      "inputs": [
        {
          "internalType": "bytes32",
          "name": "role",
          "type": "bytes32"
        }
      ],
      "name": "getRoleAdmin",
      "outputs": [
        {
          "internalType": "bytes32",
          "name": "",
          "type": "bytes32"
        }
      ],
      "stateMutability": "view",
      "type": "function",
      "constant": true
    },
    {
      "inputs": [
        {
          "internalType": "bytes32",
          "name": "role",
          "type": "bytes32"
        },
        {
          "internalType": "uint256",
          "name": "index",
          "type": "uint256"
        }
      ],
      "name": "getRoleMember",
      "outputs": [
        {
          "internalType": "address",
          "name": "",
          "type": "address"
        }
      ],
      "stateMutability": "view",
      "type": "function",
      "constant": true
    },
    {
      "inputs": [
        {
          "internalType": "bytes32",
          "name": "role",
          "type": "bytes32"
        }
      ],
      "name": "getRoleMemberCount",
      "outputs": [
        {
          "internalType": "uint256",
          "name": "",
          "type": "uint256"
        }
      ],
      "stateMutability": "view",
      "type": "function",
      "constant": true
    },
    {
      "inputs": [
        {
          "internalType": "bytes32",
          "name": "role",
          "type": "bytes32"
        },
        {
          "internalType": "address",
          "name": "account",
          "type": "address"
        }
      ],
      "name": "grantRole",
      "outputs": [],
      "stateMutability": "nonpayable",
      "type": "function"
    },
    {
      "inputs": [
        {
          "internalType": "bytes32",
          "name": "role",
          "type": "bytes32"
        },
        {
          "internalType": "address",
          "name": "account",
          "type": "address"
        }
      ],
      "name": "hasRole",
      "outputs": [
        {
          "internalType": "bool",
          "name": "",
          "type": "bool"
        }
      ],
      "stateMutability": "view",
      "type": "function",
      "constant": true
    },
    {
      "inputs": [
        {
          "internalType": "address",
          "name": "owner",
          "type": "address"
        },
        {
          "internalType": "address",
          "name": "operator",
          "type": "address"
        }
      ],
      "name": "isApprovedForAll",
      "outputs": [
        {
          "internalType": "bool",
          "name": "",
          "type": "bool"
        }
      ],
      "stateMutability": "view",
      "type": "function",
      "constant": true
    },
    {
      "inputs": [],
      "name": "name",
      "outputs": [
        {
          "internalType": "string",
          "name": "",
          "type": "string"
        }
      ],
      "stateMutability": "view",
      "type": "function",
      "constant": true
    },
    {
      "inputs": [
        {
          "internalType": "uint256",
          "name": "tokenId",
          "type": "uint256"
        }
      ],
      "name": "ownerOf",
      "outputs": [
        {
          "internalType": "address",
          "name": "",
          "type": "address"
        }
      ],
      "stateMutability": "view",
      "type": "function",
      "constant": true
    },
    {
      "inputs": [],
      "name": "pause",
      "outputs": [],
      "stateMutability": "nonpayable",
      "type": "function"
    },
    {
      "inputs": [],
      "name": "paused",
      "outputs": [
        {
          "internalType": "bool",
          "name": "",
          "type": "bool"
        }
      ],
      "stateMutability": "view",
      "type": "function",
      "constant": true
    },
    {
      "inputs": [
        {
          "internalType": "bytes32",
          "name": "role",
          "type": "bytes32"
        },
        {
          "internalType": "address",
          "name": "account",
          "type": "address"
        }
      ],
      "name": "renounceRole",
      "outputs": [],
      "stateMutability": "nonpayable",
      "type": "function"
    },
    {
      "inputs": [
        {
          "internalType": "bytes32",
          "name": "role",
          "type": "bytes32"
        },
        {
          "internalType": "address",
          "name": "account",
          "type": "address"
        }
      ],
      "name": "revokeRole",
      "outputs": [],
      "stateMutability": "nonpayable",
      "type": "function"
    },
    {
      "inputs": [
        {
          "internalType": "address",
          "name": "from",
          "type": "address"
        },
        {
          "internalType": "address",
          "name": "to",
          "type": "address"
        },
        {
          "internalType": "uint256",
          "name": "tokenId",
          "type": "uint256"
        }
      ],
      "name": "safeTransferFrom",
      "outputs": [],
      "stateMutability": "nonpayable",
      "type": "function"
    },
    {
      "inputs": [
        {
          "internalType": "address",
          "name": "from",
          "type": "address"
        },
        {
          "internalType": "address",
          "name": "to",
          "type": "address"
        },
        {
          "internalType": "uint256",
          "name": "tokenId",
          "type": "uint256"
        },
        {
          "internalType": "bytes",
          "name": "_data",
          "type": "bytes"
        }
      ],
      "name": "safeTransferFrom",
      "outputs": [],
      "stateMutability": "nonpayable",
      "type": "function"
    },
    {
      "inputs": [
        {
          "internalType": "address",
          "name": "operator",
          "type": "address"
        },
        {
          "internalType": "bool",
          "name": "approved",
          "type": "bool"
        }
      ],
      "name": "setApprovalForAll",
      "outputs": [],
      "stateMutability": "nonpayable",
      "type": "function"
    },
    {
      "inputs": [
        {
          "internalType": "bytes4",
          "name": "interfaceId",
          "type": "bytes4"
        }
      ],
      "name": "supportsInterface",
      "outputs": [
        {
          "internalType": "bool",
          "name": "",
          "type": "bool"
        }
      ],
      "stateMutability": "view",
      "type": "function",
      "constant": true
    },
    {
      "inputs": [],
      "name": "symbol",
      "outputs": [
        {
          "internalType": "string",
          "name": "",
          "type": "string"
        }
      ],
      "stateMutability": "view",
      "type": "function",
      "constant": true
    },
    {
      "inputs": [
        {
          "internalType": "uint256",
          "name": "index",
          "type": "uint256"
        }
      ],
      "name": "tokenByIndex",
      "outputs": [
        {
          "internalType": "uint256",
          "name": "",
          "type": "uint256"
        }
      ],
      "stateMutability": "view",
      "type": "function",
      "constant": true
    },
    {
      "inputs": [
        {
          "internalType": "uint256",
          "name": "",
          "type": "uint256"
        }
      ],
      "name": "tokenLockedFromTimestamp",
      "outputs": [
        {
          "internalType": "uint256",
          "name": "",
          "type": "uint256"
        }
      ],
      "stateMutability": "view",
      "type": "function",
      "constant": true
    },
    {
      "inputs": [
        {
          "internalType": "address",
          "name": "owner",
          "type": "address"
        },
        {
          "internalType": "uint256",
          "name": "index",
          "type": "uint256"
        }
      ],
      "name": "tokenOfOwnerByIndex",
      "outputs": [
        {
          "internalType": "uint256",
          "name": "",
          "type": "uint256"
        }
      ],
      "stateMutability": "view",
      "type": "function",
      "constant": true
    },
    {
      "inputs": [
        {
          "internalType": "uint256",
          "name": "",
          "type": "uint256"
        }
      ],
      "name": "tokenUnlockCodeHashes",
      "outputs": [
        {
          "internalType": "bytes32",
          "name": "",
          "type": "bytes32"
        }
      ],
      "stateMutability": "view",
      "type": "function",
      "constant": true
    },
    {
      "inputs": [
        {
          "internalType": "uint256",
          "name": "",
          "type": "uint256"
        }
      ],
      "name": "tokenUnlocked",
      "outputs": [
        {
          "internalType": "bool",
          "name": "",
          "type": "bool"
        }
      ],
      "stateMutability": "view",
      "type": "function",
      "constant": true
    },
    {
      "inputs": [],
      "name": "totalSupply",
      "outputs": [
        {
          "internalType": "uint256",
          "name": "",
          "type": "uint256"
        }
      ],
      "stateMutability": "view",
      "type": "function",
      "constant": true
    },
    {
      "inputs": [
        {
          "internalType": "address",
          "name": "from",
          "type": "address"
        },
        {
          "internalType": "address",
          "name": "to",
          "type": "address"
        },
        {
          "internalType": "uint256",
          "name": "tokenId",
          "type": "uint256"
        }
      ],
      "name": "transferFrom",
      "outputs": [],
      "stateMutability": "nonpayable",
      "type": "function"
    },
    {
      "inputs": [],
      "name": "unpause",
      "outputs": [],
      "stateMutability": "nonpayable",
      "type": "function"
    },
    {
      "inputs": [
        {
          "internalType": "bytes32",
          "name": "unlockHash",
          "type": "bytes32"
        },
        {
          "internalType": "uint256",
          "name": "tokenId",
          "type": "uint256"
        }
      ],
      "name": "unlockToken",
      "outputs": [],
      "stateMutability": "nonpayable",
      "type": "function"
    },
    {
      "inputs": [
        {
          "internalType": "address",
          "name": "to",
          "type": "address"
        },
        {
          "internalType": "uint256",
          "name": "lockedFromTimestamp",
          "type": "uint256"
        },
        {
          "internalType": "bytes32",
          "name": "unlockHash",
          "type": "bytes32"
        }
      ],
      "name": "mint",
      "outputs": [],
      "stateMutability": "nonpayable",
      "type": "function"
    },
    {
      "inputs": [
        {
          "internalType": "address",
          "name": "to",
          "type": "address"
        }
      ],
      "name": "mint",
      "outputs": [],
      "stateMutability": "nonpayable",
      "type": "function"
    },
    {
      "inputs": [
        {
          "internalType": "uint256",
          "name": "tokenId",
          "type": "uint256"
        }
      ],
      "name": "tokenURI",
      "outputs": [
        {
          "internalType": "string",
          "name": "",
          "type": "string"
        }
      ],
      "stateMutability": "view",
      "type": "function",
      "constant": true
    }
  ],
  "bytecode": "0x60806040523480156200001157600080fd5b506040518060400160405280600d81526020017f4169737468697369546f6b656e000000000000000000000000000000000000008152506040518060400160405280600381526020017f41495300000000000000000000000000000000000000000000000000000000008152506040518060400160405280601e81526020017f68747470733a2f2f61697374686973692e6172742f6d657461646174612f000081525082828160029080519060200190620000ce92919062000463565b508060039080519060200190620000e792919062000463565b5050506000600c60006101000a81548160ff02191690831515021790555080600e90805190602001906200011d92919062000463565b50620001426000801b62000136620001cd60201b60201c565b620001d560201b60201c565b620001837f9f2df0fed2c77648de5860a4cc508cd0818c85b8b8a1ab4ceeef8d981c8956a662000177620001cd60201b60201c565b620001d560201b60201c565b620001c47f65d7a28e3265b37a6474929f336521b332c1681b933f6cb9f3376673440d862a620001b8620001cd60201b60201c565b620001d560201b60201c565b50505062000578565b600033905090565b620001e78282620001eb60201b60201c565b5050565b6200020282826200023360201b6200143f1760201c565b6200022e81600160008581526020019081526020016000206200032460201b6200151f1790919060201c565b505050565b6200024582826200035c60201b60201c565b6200032057600160008084815260200190815260200160002060000160008373ffffffffffffffffffffffffffffffffffffffff1673ffffffffffffffffffffffffffffffffffffffff16815260200190815260200160002060006101000a81548160ff021916908315150217905550620002c5620001cd60201b60201c565b73ffffffffffffffffffffffffffffffffffffffff168173ffffffffffffffffffffffffffffffffffffffff16837f2f8788117e7eff1d82e926ec794901d17c78024a50270940304540a733656f0d60405160405180910390a45b5050565b600062000354836000018373ffffffffffffffffffffffffffffffffffffffff1660001b620003c660201b60201c565b905092915050565b600080600084815260200190815260200160002060000160008373ffffffffffffffffffffffffffffffffffffffff1673ffffffffffffffffffffffffffffffffffffffff16815260200190815260200160002060009054906101000a900460ff16905092915050565b6000620003da83836200044060201b60201c565b620004355782600001829080600181540180825580915050600190039060005260206000200160009091909190915055826000018054905083600101600084815260200190815260200160002081905550600190506200043a565b600090505b92915050565b600080836001016000848152602001908152602001600020541415905092915050565b828054620004719062000542565b90600052602060002090601f016020900481019282620004955760008555620004e1565b82601f10620004b057805160ff1916838001178555620004e1565b82800160010185558215620004e1579182015b82811115620004e0578251825591602001919060010190620004c3565b5b509050620004f09190620004f4565b5090565b5b808211156200050f576000816000905550600101620004f5565b5090565b7f4e487b7100000000000000000000000000000000000000000000000000000000600052602260045260246000fd5b600060028204905060018216806200055b57607f821691505b6020821081141562000572576200057162000513565b5b50919050565b614df780620005886000396000f3fe608060405234801561001057600080fd5b506004361061021c5760003560e01c80636352211e11610125578063a3c3e1bd116100ad578063ca15c8731161007c578063ca15c8731461066f578063d53913931461069f578063d547741f146106bd578063e63ab1e9146106d9578063e985e9c5146106f75761021c565b8063a3c3e1bd146105d7578063b88d4fde146105f3578063c4d271be1461060f578063c87b56dd1461063f5761021c565b80639010d07c116100f45780639010d07c1461051f57806391d148541461054f57806395d89b411461057f578063a217fddf1461059d578063a22cb465146105bb5761021c565b80636352211e146104995780636a627842146104c957806370a08231146104e55780638456cb59146105155761021c565b80632f2ff15d116101a857806342842e0e1161017757806342842e0e146103e357806342966c68146103ff5780634f6ccce71461041b57806351f6b2e81461044b5780635c975abb1461047b5761021c565b80632f2ff15d146103715780632f745c591461038d57806336568abe146103bd5780633f4ba83a146103d95761021c565b8063095ea7b3116101ef578063095ea7b3146102cf57806318160ddd146102eb5780631e458bee1461030957806323b872dd14610325578063248a9ca3146103415761021c565b806301ffc9a71461022157806303017e421461025157806306fdde0314610281578063081812fc1461029f575b600080fd5b61023b6004803603810190610236919061329a565b610727565b60405161024891906132e2565b60405180910390f35b61026b60048036038101906102669190613333565b610739565b6040516102789190613379565b60405180910390f35b610289610751565b604051610296919061342d565b60405180910390f35b6102b960048036038101906102b49190613333565b6107e3565b6040516102c69190613490565b60405180910390f35b6102e960048036038101906102e491906134d7565b610868565b005b6102f3610980565b6040516103009190613526565b60405180910390f35b610323600480360381019061031e919061356d565b61098d565b005b61033f600480360381019061033a91906135c0565b6109e7565b005b61035b60048036038101906103569190613613565b610a47565b6040516103689190613379565b60405180910390f35b61038b60048036038101906103869190613640565b610a66565b005b6103a760048036038101906103a291906134d7565b610a8f565b6040516103b49190613526565b60405180910390f35b6103d760048036038101906103d29190613640565b610b34565b005b6103e1610bb7565b005b6103fd60048036038101906103f891906135c0565b610c31565b005b61041960048036038101906104149190613333565b610c51565b005b61043560048036038101906104309190613333565b610cad565b6040516104429190613526565b60405180910390f35b61046560048036038101906104609190613333565b610d1e565b6040516104729190613526565b60405180910390f35b610483610d36565b60405161049091906132e2565b60405180910390f35b6104b360048036038101906104ae9190613333565b610d4d565b6040516104c09190613490565b60405180910390f35b6104e360048036038101906104de9190613680565b610dff565b005b6104ff60048036038101906104fa9190613680565b610e8f565b60405161050c9190613526565b60405180910390f35b61051d610f47565b005b610539600480360381019061053491906136ad565b610fc1565b6040516105469190613490565b60405180910390f35b61056960048036038101906105649190613640565b610ff0565b60405161057691906132e2565b60405180910390f35b61058761105a565b604051610594919061342d565b60405180910390f35b6105a56110ec565b6040516105b29190613379565b60405180910390f35b6105d560048036038101906105d09190613719565b6110f3565b005b6105f160048036038101906105ec91906136ad565b611109565b005b61060d6004803603810190610608919061388e565b611263565b005b61062960048036038101906106249190613333565b6112c5565b60405161063691906132e2565b60405180910390f35b61065960048036038101906106549190613333565b6112e5565b604051610666919061342d565b60405180910390f35b61068960048036038101906106849190613613565b611316565b6040516106969190613526565b60405180910390f35b6106a761133a565b6040516106b49190613379565b60405180910390f35b6106d760048036038101906106d29190613640565b61135e565b005b6106e1611387565b6040516106ee9190613379565b60405180910390f35b610711600480360381019061070c9190613911565b6113ab565b60405161071e91906132e2565b60405180910390f35b60006107328261154f565b9050919050565b60116020528060005260406000206000915090505481565b60606002805461076090613980565b80601f016020809104026020016040519081016040528092919081815260200182805461078c90613980565b80156107d95780601f106107ae576101008083540402835291602001916107d9565b820191906000526020600020905b8154815290600101906020018083116107bc57829003601f168201915b5050505050905090565b60006107ee826115c9565b61082d576040517f08c379a000000000000000000000000000000000000000000000000000000000815260040161082490613a24565b60405180910390fd5b6006600083815260200190815260200160002060009054906101000a900473ffffffffffffffffffffffffffffffffffffffff169050919050565b600061087382610d4d565b90508073ffffffffffffffffffffffffffffffffffffffff168373ffffffffffffffffffffffffffffffffffffffff1614156108e4576040517f08c379a00000000000000000000000000000000000000000000000000000000081526004016108db90613ab6565b60405180910390fd5b8073ffffffffffffffffffffffffffffffffffffffff16610903611635565b73ffffffffffffffffffffffffffffffffffffffff16148061093257506109318161092c611635565b6113ab565b5b610971576040517f08c379a000000000000000000000000000000000000000000000000000000000815260040161096890613b48565b60405180910390fd5b61097b838361163d565b505050565b6000600a80549050905090565b816010600061099c600f6116f6565b81526020019081526020016000208190555080601160006109bd600f6116f6565b8152602001908152602001600020819055506109d9600f611704565b6109e283610dff565b505050565b6109f86109f2611635565b8261171a565b610a37576040517f08c379a0000000000000000000000000000000000000000000000000000000008152600401610a2e90613bda565b60405180910390fd5b610a428383836117f8565b505050565b6000806000838152602001908152602001600020600101549050919050565b610a6f82610a47565b610a8081610a7b611635565b611a54565b610a8a8383611af1565b505050565b6000610a9a83610e8f565b8210610adb576040517f08c379a0000000000000000000000000000000000000000000000000000000008152600401610ad290613c6c565b60405180910390fd5b600860008473ffffffffffffffffffffffffffffffffffffffff1673ffffffffffffffffffffffffffffffffffffffff168152602001908152602001600020600083815260200190815260200160002054905092915050565b610b3c611635565b73ffffffffffffffffffffffffffffffffffffffff168173ffffffffffffffffffffffffffffffffffffffff1614610ba9576040517f08c379a0000000000000000000000000000000000000000000000000000000008152600401610ba090613cfe565b60405180910390fd5b610bb38282611b25565b5050565b610be87f65d7a28e3265b37a6474929f336521b332c1681b933f6cb9f3376673440d862a610be3611635565b610ff0565b610c27576040517f08c379a0000000000000000000000000000000000000000000000000000000008152600401610c1e90613d90565b60405180910390fd5b610c2f611b59565b565b610c4c83838360405180602001604052806000815250611263565b505050565b610c62610c5c611635565b8261171a565b610ca1576040517f08c379a0000000000000000000000000000000000000000000000000000000008152600401610c9890613e22565b60405180910390fd5b610caa81611bfb565b50565b6000610cb7610980565b8210610cf8576040517f08c379a0000000000000000000000000000000000000000000000000000000008152600401610cef90613eb4565b60405180910390fd5b600a8281548110610d0c57610d0b613ed4565b5b90600052602060002001549050919050565b60106020528060005260406000206000915090505481565b6000600c60009054906101000a900460ff16905090565b6000806004600084815260200190815260200160002060009054906101000a900473ffffffffffffffffffffffffffffffffffffffff169050600073ffffffffffffffffffffffffffffffffffffffff168173ffffffffffffffffffffffffffffffffffffffff161415610df6576040517f08c379a0000000000000000000000000000000000000000000000000000000008152600401610ded90613f75565b60405180910390fd5b80915050919050565b610e307f9f2df0fed2c77648de5860a4cc508cd0818c85b8b8a1ab4ceeef8d981c8956a6610e2b611635565b610ff0565b610e6f576040517f08c379a0000000000000000000000000000000000000000000000000000000008152600401610e6690614007565b60405180910390fd5b610e8281610e7d600d6116f6565b611d0c565b610e8c600d611704565b50565b60008073ffffffffffffffffffffffffffffffffffffffff168273ffffffffffffffffffffffffffffffffffffffff161415610f00576040517f08c379a0000000000000000000000000000000000000000000000000000000008152600401610ef790614099565b60405180910390fd5b600560008373ffffffffffffffffffffffffffffffffffffffff1673ffffffffffffffffffffffffffffffffffffffff168152602001908152602001600020549050919050565b610f787f65d7a28e3265b37a6474929f336521b332c1681b933f6cb9f3376673440d862a610f73611635565b610ff0565b610fb7576040517f08c379a0000000000000000000000000000000000000000000000000000000008152600401610fae9061412b565b60405180910390fd5b610fbf611eda565b565b6000610fe88260016000868152602001908152602001600020611f7d90919063ffffffff16565b905092915050565b600080600084815260200190815260200160002060000160008373ffffffffffffffffffffffffffffffffffffffff1673ffffffffffffffffffffffffffffffffffffffff16815260200190815260200160002060009054906101000a900460ff16905092915050565b60606003805461106990613980565b80601f016020809104026020016040519081016040528092919081815260200182805461109590613980565b80156110e25780601f106110b7576101008083540402835291602001916110e2565b820191906000526020600020905b8154815290600101906020018083116110c557829003601f168201915b5050505050905090565b6000801b81565b6111056110fe611635565b8383611f97565b5050565b61111281610d4d565b73ffffffffffffffffffffffffffffffffffffffff163373ffffffffffffffffffffffffffffffffffffffff161461117f576040517f08c379a0000000000000000000000000000000000000000000000000000000008152600401611176906141bd565b60405180910390fd5b6011600082815260200190815260200160002054826040516020016111a49190613379565b60405160208183030381529060405280519060200120146111fa576040517f08c379a00000000000000000000000000000000000000000000000000000000081526004016111f19061424f565b60405180910390fd5b60016012600083815260200190815260200160002060006101000a81548160ff0219169083151502179055507f0fe7d9801197f79ef3b1595d19379eb58f0fff5f98b0f6d6f34c03cae5306c37813360405161125792919061426f565b60405180910390a15050565b61127461126e611635565b8361171a565b6112b3576040517f08c379a00000000000000000000000000000000000000000000000000000000081526004016112aa90613bda565b60405180910390fd5b6112bf84848484612104565b50505050565b60126020528060005260406000206000915054906101000a900460ff1681565b60606112f082612160565b6040516020016113009190614320565b6040516020818303038152906040529050919050565b600061133360016000848152602001908152602001600020612207565b9050919050565b7f9f2df0fed2c77648de5860a4cc508cd0818c85b8b8a1ab4ceeef8d981c8956a681565b61136782610a47565b61137881611373611635565b611a54565b6113828383611b25565b505050565b7f65d7a28e3265b37a6474929f336521b332c1681b933f6cb9f3376673440d862a81565b6000600760008473ffffffffffffffffffffffffffffffffffffffff1673ffffffffffffffffffffffffffffffffffffffff16815260200190815260200160002060008373ffffffffffffffffffffffffffffffffffffffff1673ffffffffffffffffffffffffffffffffffffffff16815260200190815260200160002060009054906101000a900460ff16905092915050565b6114498282610ff0565b61151b57600160008084815260200190815260200160002060000160008373ffffffffffffffffffffffffffffffffffffffff1673ffffffffffffffffffffffffffffffffffffffff16815260200190815260200160002060006101000a81548160ff0219169083151502179055506114c0611635565b73ffffffffffffffffffffffffffffffffffffffff168173ffffffffffffffffffffffffffffffffffffffff16837f2f8788117e7eff1d82e926ec794901d17c78024a50270940304540a733656f0d60405160405180910390a45b5050565b6000611547836000018373ffffffffffffffffffffffffffffffffffffffff1660001b61221c565b905092915050565b60007f780e9d63000000000000000000000000000000000000000000000000000000007bffffffffffffffffffffffffffffffffffffffffffffffffffffffff1916827bffffffffffffffffffffffffffffffffffffffffffffffffffffffff191614806115c257506115c18261228c565b5b9050919050565b60008073ffffffffffffffffffffffffffffffffffffffff166004600084815260200190815260200160002060009054906101000a900473ffffffffffffffffffffffffffffffffffffffff1673ffffffffffffffffffffffffffffffffffffffff1614159050919050565b600033905090565b816006600083815260200190815260200160002060006101000a81548173ffffffffffffffffffffffffffffffffffffffff021916908373ffffffffffffffffffffffffffffffffffffffff160217905550808273ffffffffffffffffffffffffffffffffffffffff166116b083610d4d565b73ffffffffffffffffffffffffffffffffffffffff167f8c5be1e5ebec7d5bd14f71427d1e84f3dd0314c0f7b2291e5b200ac8c7c3b92560405160405180910390a45050565b600081600001549050919050565b6001816000016000828254019250508190555050565b6000611725826115c9565b611764576040517f08c379a000000000000000000000000000000000000000000000000000000000815260040161175b906143b4565b60405180910390fd5b600061176f83610d4d565b90508073ffffffffffffffffffffffffffffffffffffffff168473ffffffffffffffffffffffffffffffffffffffff1614806117de57508373ffffffffffffffffffffffffffffffffffffffff166117c6846107e3565b73ffffffffffffffffffffffffffffffffffffffff16145b806117ef57506117ee81856113ab565b5b91505092915050565b8273ffffffffffffffffffffffffffffffffffffffff1661181882610d4d565b73ffffffffffffffffffffffffffffffffffffffff161461186e576040517f08c379a000000000000000000000000000000000000000000000000000000000815260040161186590614446565b60405180910390fd5b600073ffffffffffffffffffffffffffffffffffffffff168273ffffffffffffffffffffffffffffffffffffffff1614156118de576040517f08c379a00000000000000000000000000000000000000000000000000000000081526004016118d5906144d8565b60405180910390fd5b6118e983838361236e565b6118f460008261163d565b6001600560008573ffffffffffffffffffffffffffffffffffffffff1673ffffffffffffffffffffffffffffffffffffffff16815260200190815260200160002060008282546119449190614527565b925050819055506001600560008473ffffffffffffffffffffffffffffffffffffffff1673ffffffffffffffffffffffffffffffffffffffff168152602001908152602001600020600082825461199b919061455b565b92505081905550816004600083815260200190815260200160002060006101000a81548173ffffffffffffffffffffffffffffffffffffffff021916908373ffffffffffffffffffffffffffffffffffffffff160217905550808273ffffffffffffffffffffffffffffffffffffffff168473ffffffffffffffffffffffffffffffffffffffff167fddf252ad1be2c89b69c2b068fc378daa952ba7f163c4a11628f55a4df523b3ef60405160405180910390a4505050565b611a5e8282610ff0565b611aed57611a838173ffffffffffffffffffffffffffffffffffffffff1660146123fb565b611a918360001c60206123fb565b604051602001611aa2929190614649565b6040516020818303038152906040526040517f08c379a0000000000000000000000000000000000000000000000000000000008152600401611ae4919061342d565b60405180910390fd5b5050565b611afb828261143f565b611b20816001600085815260200190815260200160002061151f90919063ffffffff16565b505050565b611b2f8282612637565b611b54816001600085815260200190815260200160002061271890919063ffffffff16565b505050565b611b61610d36565b611ba0576040517f08c379a0000000000000000000000000000000000000000000000000000000008152600401611b97906146cf565b60405180910390fd5b6000600c60006101000a81548160ff0219169083151502179055507f5db9ee0a495bf2e6ff9c91a7834c1ba4fdd244a5e8aa4e537bd38aeae4b073aa611be4611635565b604051611bf19190613490565b60405180910390a1565b6000611c0682610d4d565b9050611c148160008461236e565b611c1f60008361163d565b6001600560008373ffffffffffffffffffffffffffffffffffffffff1673ffffffffffffffffffffffffffffffffffffffff1681526020019081526020016000206000828254611c6f9190614527565b925050819055506004600083815260200190815260200160002060006101000a81549073ffffffffffffffffffffffffffffffffffffffff021916905581600073ffffffffffffffffffffffffffffffffffffffff168273ffffffffffffffffffffffffffffffffffffffff167fddf252ad1be2c89b69c2b068fc378daa952ba7f163c4a11628f55a4df523b3ef60405160405180910390a45050565b600073ffffffffffffffffffffffffffffffffffffffff168273ffffffffffffffffffffffffffffffffffffffff161415611d7c576040517f08c379a0000000000000000000000000000000000000000000000000000000008152600401611d739061473b565b60405180910390fd5b611d85816115c9565b15611dc5576040517f08c379a0000000000000000000000000000000000000000000000000000000008152600401611dbc906147a7565b60405180910390fd5b611dd16000838361236e565b6001600560008473ffffffffffffffffffffffffffffffffffffffff1673ffffffffffffffffffffffffffffffffffffffff1681526020019081526020016000206000828254611e21919061455b565b92505081905550816004600083815260200190815260200160002060006101000a81548173ffffffffffffffffffffffffffffffffffffffff021916908373ffffffffffffffffffffffffffffffffffffffff160217905550808273ffffffffffffffffffffffffffffffffffffffff16600073ffffffffffffffffffffffffffffffffffffffff167fddf252ad1be2c89b69c2b068fc378daa952ba7f163c4a11628f55a4df523b3ef60405160405180910390a45050565b611ee2610d36565b15611f22576040517f08c379a0000000000000000000000000000000000000000000000000000000008152600401611f1990614813565b60405180910390fd5b6001600c60006101000a81548160ff0219169083151502179055507f62e78cea01bee320cd4e420270b5ea74000d11b0c9f74754ebdbfc544b05a258611f66611635565b604051611f739190613490565b60405180910390a1565b6000611f8c8360000183612748565b60001c905092915050565b8173ffffffffffffffffffffffffffffffffffffffff168373ffffffffffffffffffffffffffffffffffffffff161415612006576040517f08c379a0000000000000000000000000000000000000000000000000000000008152600401611ffd9061487f565b60405180910390fd5b80600760008573ffffffffffffffffffffffffffffffffffffffff1673ffffffffffffffffffffffffffffffffffffffff16815260200190815260200160002060008473ffffffffffffffffffffffffffffffffffffffff1673ffffffffffffffffffffffffffffffffffffffff16815260200190815260200160002060006101000a81548160ff0219169083151502179055508173ffffffffffffffffffffffffffffffffffffffff168373ffffffffffffffffffffffffffffffffffffffff167f17307eab39ab6107e8899845ad3d59bd9653f200f220920489ca2b5937696c31836040516120f791906132e2565b60405180910390a3505050565b61210f8484846117f8565b61211b84848484612773565b61215a576040517f08c379a000000000000000000000000000000000000000000000000000000000815260040161215190614911565b60405180910390fd5b50505050565b606061216b826115c9565b6121aa576040517f08c379a00000000000000000000000000000000000000000000000000000000081526004016121a1906149a3565b60405180910390fd5b60006121b46128fb565b905060008151116121d457604051806020016040528060008152506121ff565b806121de8461298d565b6040516020016121ef9291906149c3565b6040516020818303038152906040525b915050919050565b600061221582600001612aee565b9050919050565b60006122288383612aff565b612281578260000182908060018154018082558091505060019003906000526020600020016000909190919091505582600001805490508360010160008481526020019081526020016000208190555060019050612286565b600090505b92915050565b60007f80ac58cd000000000000000000000000000000000000000000000000000000007bffffffffffffffffffffffffffffffffffffffffffffffffffffffff1916827bffffffffffffffffffffffffffffffffffffffffffffffffffffffff1916148061235757507f5b5e139f000000000000000000000000000000000000000000000000000000007bffffffffffffffffffffffffffffffffffffffffffffffffffffffff1916827bffffffffffffffffffffffffffffffffffffffffffffffffffffffff1916145b80612367575061236682612b22565b5b9050919050565b42601060008381526020019081526020016000205411806123ac57506012600082815260200190815260200160002060009054906101000a900460ff165b6123eb576040517f08c379a00000000000000000000000000000000000000000000000000000000081526004016123e290614a33565b60405180910390fd5b6123f6838383612b9c565b505050565b60606000600283600261240e9190614a53565b612418919061455b565b67ffffffffffffffff81111561243157612430613763565b5b6040519080825280601f01601f1916602001820160405280156124635781602001600182028036833780820191505090505b5090507f30000000000000000000000000000000000000000000000000000000000000008160008151811061249b5761249a613ed4565b5b60200101907effffffffffffffffffffffffffffffffffffffffffffffffffffffffffffff1916908160001a9053507f7800000000000000000000000000000000000000000000000000000000000000816001815181106124ff576124fe613ed4565b5b60200101907effffffffffffffffffffffffffffffffffffffffffffffffffffffffffffff1916908160001a9053506000600184600261253f9190614a53565b612549919061455b565b90505b60018111156125e9577f3031323334353637383961626364656600000000000000000000000000000000600f86166010811061258b5761258a613ed4565b5b1a60f81b8282815181106125a2576125a1613ed4565b5b60200101907effffffffffffffffffffffffffffffffffffffffffffffffffffffffffffff1916908160001a905350600485901c9450806125e290614aad565b905061254c565b506000841461262d576040517f08c379a000000000000000000000000000000000000000000000000000000000815260040161262490614b23565b60405180910390fd5b8091505092915050565b6126418282610ff0565b1561271457600080600084815260200190815260200160002060000160008373ffffffffffffffffffffffffffffffffffffffff1673ffffffffffffffffffffffffffffffffffffffff16815260200190815260200160002060006101000a81548160ff0219169083151502179055506126b9611635565b73ffffffffffffffffffffffffffffffffffffffff168173ffffffffffffffffffffffffffffffffffffffff16837ff6391f5c32d9c69d2a47ea670b442974b53935d1edc7fd64eb21e047a839171b60405160405180910390a45b5050565b6000612740836000018373ffffffffffffffffffffffffffffffffffffffff1660001b612bac565b905092915050565b60008260000182815481106127605761275f613ed4565b5b9060005260206000200154905092915050565b60006127948473ffffffffffffffffffffffffffffffffffffffff16612cc0565b156128ee578373ffffffffffffffffffffffffffffffffffffffff1663150b7a026127bd611635565b8786866040518563ffffffff1660e01b81526004016127df9493929190614b98565b6020604051808303816000875af192505050801561281b57506040513d601f19601f820116820180604052508101906128189190614bf9565b60015b61289e573d806000811461284b576040519150601f19603f3d011682016040523d82523d6000602084013e612850565b606091505b50600081511415612896576040517f08c379a000000000000000000000000000000000000000000000000000000000815260040161288d90614911565b60405180910390fd5b805181602001fd5b63150b7a0260e01b7bffffffffffffffffffffffffffffffffffffffffffffffffffffffff1916817bffffffffffffffffffffffffffffffffffffffffffffffffffffffff1916149150506128f3565b600190505b949350505050565b6060600e805461290a90613980565b80601f016020809104026020016040519081016040528092919081815260200182805461293690613980565b80156129835780601f1061295857610100808354040283529160200191612983565b820191906000526020600020905b81548152906001019060200180831161296657829003601f168201915b5050505050905090565b606060008214156129d5576040518060400160405280600181526020017f30000000000000000000000000000000000000000000000000000000000000008152509050612ae9565b600082905060005b60008214612a075780806129f090614c26565b915050600a82612a009190614c9e565b91506129dd565b60008167ffffffffffffffff811115612a2357612a22613763565b5b6040519080825280601f01601f191660200182016040528015612a555781602001600182028036833780820191505090505b5090505b60008514612ae257600182612a6e9190614527565b9150600a85612a7d9190614ccf565b6030612a89919061455b565b60f81b818381518110612a9f57612a9e613ed4565b5b60200101907effffffffffffffffffffffffffffffffffffffffffffffffffffffffffffff1916908160001a905350600a85612adb9190614c9e565b9450612a59565b8093505050505b919050565b600081600001805490509050919050565b600080836001016000848152602001908152602001600020541415905092915050565b60007f5a05180f000000000000000000000000000000000000000000000000000000007bffffffffffffffffffffffffffffffffffffffffffffffffffffffff1916827bffffffffffffffffffffffffffffffffffffffffffffffffffffffff19161480612b955750612b9482612cd3565b5b9050919050565b612ba7838383612d4d565b505050565b60008083600101600084815260200190815260200160002054905060008114612cb4576000600182612bde9190614527565b9050600060018660000180549050612bf69190614527565b9050818114612c65576000866000018281548110612c1757612c16613ed4565b5b9060005260206000200154905080876000018481548110612c3b57612c3a613ed4565b5b90600052602060002001819055508387600101600083815260200190815260200160002081905550505b85600001805480612c7957612c78614d00565b5b600190038181906000526020600020016000905590558560010160008681526020019081526020016000206000905560019350505050612cba565b60009150505b92915050565b600080823b905060008111915050919050565b60007f7965db0b000000000000000000000000000000000000000000000000000000007bffffffffffffffffffffffffffffffffffffffffffffffffffffffff1916827bffffffffffffffffffffffffffffffffffffffffffffffffffffffff19161480612d465750612d4582612da5565b5b9050919050565b612d58838383612e0f565b612d60610d36565b15612da0576040517f08c379a0000000000000000000000000000000000000000000000000000000008152600401612d9790614da1565b60405180910390fd5b505050565b60007f01ffc9a7000000000000000000000000000000000000000000000000000000007bffffffffffffffffffffffffffffffffffffffffffffffffffffffff1916827bffffffffffffffffffffffffffffffffffffffffffffffffffffffff1916149050919050565b612e1a838383612f23565b600073ffffffffffffffffffffffffffffffffffffffff168373ffffffffffffffffffffffffffffffffffffffff161415612e5d57612e5881612f28565b612e9c565b8173ffffffffffffffffffffffffffffffffffffffff168373ffffffffffffffffffffffffffffffffffffffff1614612e9b57612e9a8382612f71565b5b5b600073ffffffffffffffffffffffffffffffffffffffff168273ffffffffffffffffffffffffffffffffffffffff161415612edf57612eda816130de565b612f1e565b8273ffffffffffffffffffffffffffffffffffffffff168273ffffffffffffffffffffffffffffffffffffffff1614612f1d57612f1c82826131af565b5b5b505050565b505050565b600a80549050600b600083815260200190815260200160002081905550600a81908060018154018082558091505060019003906000526020600020016000909190919091505550565b60006001612f7e84610e8f565b612f889190614527565b905060006009600084815260200190815260200160002054905081811461306d576000600860008673ffffffffffffffffffffffffffffffffffffffff1673ffffffffffffffffffffffffffffffffffffffff168152602001908152602001600020600084815260200190815260200160002054905080600860008773ffffffffffffffffffffffffffffffffffffffff1673ffffffffffffffffffffffffffffffffffffffff168152602001908152602001600020600084815260200190815260200160002081905550816009600083815260200190815260200160002081905550505b6009600084815260200190815260200160002060009055600860008573ffffffffffffffffffffffffffffffffffffffff1673ffffffffffffffffffffffffffffffffffffffff16815260200190815260200160002060008381526020019081526020016000206000905550505050565b60006001600a805490506130f29190614527565b90506000600b60008481526020019081526020016000205490506000600a838154811061312257613121613ed4565b5b9060005260206000200154905080600a838154811061314457613143613ed4565b5b906000526020600020018190555081600b600083815260200190815260200160002081905550600b600085815260200190815260200160002060009055600a80548061319357613192614d00565b5b6001900381819060005260206000200160009055905550505050565b60006131ba83610e8f565b905081600860008573ffffffffffffffffffffffffffffffffffffffff1673ffffffffffffffffffffffffffffffffffffffff168152602001908152602001600020600083815260200190815260200160002081905550806009600084815260200190815260200160002081905550505050565b6000604051905090565b600080fd5b600080fd5b60007fffffffff0000000000000000000000000000000000000000000000000000000082169050919050565b61327781613242565b811461328257600080fd5b50565b6000813590506132948161326e565b92915050565b6000602082840312156132b0576132af613238565b5b60006132be84828501613285565b91505092915050565b60008115159050919050565b6132dc816132c7565b82525050565b60006020820190506132f760008301846132d3565b92915050565b6000819050919050565b613310816132fd565b811461331b57600080fd5b50565b60008135905061332d81613307565b92915050565b60006020828403121561334957613348613238565b5b60006133578482850161331e565b91505092915050565b6000819050919050565b61337381613360565b82525050565b600060208201905061338e600083018461336a565b92915050565b600081519050919050565b600082825260208201905092915050565b60005b838110156133ce5780820151818401526020810190506133b3565b838111156133dd576000848401525b50505050565b6000601f19601f8301169050919050565b60006133ff82613394565b613409818561339f565b93506134198185602086016133b0565b613422816133e3565b840191505092915050565b6000602082019050818103600083015261344781846133f4565b905092915050565b600073ffffffffffffffffffffffffffffffffffffffff82169050919050565b600061347a8261344f565b9050919050565b61348a8161346f565b82525050565b60006020820190506134a56000830184613481565b92915050565b6134b48161346f565b81146134bf57600080fd5b50565b6000813590506134d1816134ab565b92915050565b600080604083850312156134ee576134ed613238565b5b60006134fc858286016134c2565b925050602061350d8582860161331e565b9150509250929050565b613520816132fd565b82525050565b600060208201905061353b6000830184613517565b92915050565b61354a81613360565b811461355557600080fd5b50565b60008135905061356781613541565b92915050565b60008060006060848603121561358657613585613238565b5b6000613594868287016134c2565b93505060206135a58682870161331e565b92505060406135b686828701613558565b9150509250925092565b6000806000606084860312156135d9576135d8613238565b5b60006135e7868287016134c2565b93505060206135f8868287016134c2565b92505060406136098682870161331e565b9150509250925092565b60006020828403121561362957613628613238565b5b600061363784828501613558565b91505092915050565b6000806040838503121561365757613656613238565b5b600061366585828601613558565b9250506020613676858286016134c2565b9150509250929050565b60006020828403121561369657613695613238565b5b60006136a4848285016134c2565b91505092915050565b600080604083850312156136c4576136c3613238565b5b60006136d285828601613558565b92505060206136e38582860161331e565b9150509250929050565b6136f6816132c7565b811461370157600080fd5b50565b600081359050613713816136ed565b92915050565b600080604083850312156137305761372f613238565b5b600061373e858286016134c2565b925050602061374f85828601613704565b9150509250929050565b600080fd5b600080fd5b7f4e487b7100000000000000000000000000000000000000000000000000000000600052604160045260246000fd5b61379b826133e3565b810181811067ffffffffffffffff821117156137ba576137b9613763565b5b80604052505050565b60006137cd61322e565b90506137d98282613792565b919050565b600067ffffffffffffffff8211156137f9576137f8613763565b5b613802826133e3565b9050602081019050919050565b82818337600083830152505050565b600061383161382c846137de565b6137c3565b90508281526020810184848401111561384d5761384c61375e565b5b61385884828561380f565b509392505050565b600082601f83011261387557613874613759565b5b813561388584826020860161381e565b91505092915050565b600080600080608085870312156138a8576138a7613238565b5b60006138b6878288016134c2565b94505060206138c7878288016134c2565b93505060406138d88782880161331e565b925050606085013567ffffffffffffffff8111156138f9576138f861323d565b5b61390587828801613860565b91505092959194509250565b6000806040838503121561392857613927613238565b5b6000613936858286016134c2565b9250506020613947858286016134c2565b9150509250929050565b7f4e487b7100000000000000000000000000000000000000000000000000000000600052602260045260246000fd5b6000600282049050600182168061399857607f821691505b602082108114156139ac576139ab613951565b5b50919050565b7f4552433732313a20617070726f76656420717565727920666f72206e6f6e657860008201527f697374656e7420746f6b656e0000000000000000000000000000000000000000602082015250565b6000613a0e602c8361339f565b9150613a19826139b2565b604082019050919050565b60006020820190508181036000830152613a3d81613a01565b9050919050565b7f4552433732313a20617070726f76616c20746f2063757272656e74206f776e6560008201527f7200000000000000000000000000000000000000000000000000000000000000602082015250565b6000613aa060218361339f565b9150613aab82613a44565b604082019050919050565b60006020820190508181036000830152613acf81613a93565b9050919050565b7f4552433732313a20617070726f76652063616c6c6572206973206e6f74206f7760008201527f6e6572206e6f7220617070726f76656420666f7220616c6c0000000000000000602082015250565b6000613b3260388361339f565b9150613b3d82613ad6565b604082019050919050565b60006020820190508181036000830152613b6181613b25565b9050919050565b7f4552433732313a207472616e736665722063616c6c6572206973206e6f74206f60008201527f776e6572206e6f7220617070726f766564000000000000000000000000000000602082015250565b6000613bc460318361339f565b9150613bcf82613b68565b604082019050919050565b60006020820190508181036000830152613bf381613bb7565b9050919050565b7f455243373231456e756d657261626c653a206f776e657220696e646578206f7560008201527f74206f6620626f756e6473000000000000000000000000000000000000000000602082015250565b6000613c56602b8361339f565b9150613c6182613bfa565b604082019050919050565b60006020820190508181036000830152613c8581613c49565b9050919050565b7f416363657373436f6e74726f6c3a2063616e206f6e6c792072656e6f756e636560008201527f20726f6c657320666f722073656c660000000000000000000000000000000000602082015250565b6000613ce8602f8361339f565b9150613cf382613c8c565b604082019050919050565b60006020820190508181036000830152613d1781613cdb565b9050919050565b7f4552433732315072657365744d696e7465725061757365724175746f49643a2060008201527f6d75737420686176652070617573657220726f6c6520746f20756e7061757365602082015250565b6000613d7a60408361339f565b9150613d8582613d1e565b604082019050919050565b60006020820190508181036000830152613da981613d6d565b9050919050565b7f4552433732314275726e61626c653a2063616c6c6572206973206e6f74206f7760008201527f6e6572206e6f7220617070726f76656400000000000000000000000000000000602082015250565b6000613e0c60308361339f565b9150613e1782613db0565b604082019050919050565b60006020820190508181036000830152613e3b81613dff565b9050919050565b7f455243373231456e756d657261626c653a20676c6f62616c20696e646578206f60008201527f7574206f6620626f756e64730000000000000000000000000000000000000000602082015250565b6000613e9e602c8361339f565b9150613ea982613e42565b604082019050919050565b60006020820190508181036000830152613ecd81613e91565b9050919050565b7f4e487b7100000000000000000000000000000000000000000000000000000000600052603260045260246000fd5b7f4552433732313a206f776e657220717565727920666f72206e6f6e657869737460008201527f656e7420746f6b656e0000000000000000000000000000000000000000000000602082015250565b6000613f5f60298361339f565b9150613f6a82613f03565b604082019050919050565b60006020820190508181036000830152613f8e81613f52565b9050919050565b7f4552433732315072657365744d696e7465725061757365724175746f49643a2060008201527f6d7573742068617665206d696e74657220726f6c6520746f206d696e74000000602082015250565b6000613ff1603d8361339f565b9150613ffc82613f95565b604082019050919050565b6000602082019050818103600083015261402081613fe4565b9050919050565b7f4552433732313a2062616c616e636520717565727920666f7220746865207a6560008201527f726f206164647265737300000000000000000000000000000000000000000000602082015250565b6000614083602a8361339f565b915061408e82614027565b604082019050919050565b600060208201905081810360008301526140b281614076565b9050919050565b7f4552433732315072657365744d696e7465725061757365724175746f49643a2060008201527f6d75737420686176652070617573657220726f6c6520746f2070617573650000602082015250565b6000614115603e8361339f565b9150614120826140b9565b604082019050919050565b6000602082019050818103600083015261414481614108565b9050919050565b7f4169736874697369546f6b656e3a204f6e6c7920746865204f776e657220636160008201527f6e20756e6c6f636b2074686520546f6b656e0000000000000000000000000000602082015250565b60006141a760328361339f565b91506141b28261414b565b604082019050919050565b600060208201905081810360008301526141d68161419a565b9050919050565b7f4169736874697369546f6b656e3a20556e6c6f636b20436f646520496e636f7260008201527f7265637400000000000000000000000000000000000000000000000000000000602082015250565b600061423960248361339f565b9150614244826141dd565b604082019050919050565b600060208201905081810360008301526142688161422c565b9050919050565b60006040820190506142846000830185613517565b6142916020830184613481565b9392505050565b600081905092915050565b60006142ae82613394565b6142b88185614298565b93506142c88185602086016133b0565b80840191505092915050565b7f2e6a736f6e000000000000000000000000000000000000000000000000000000600082015250565b600061430a600583614298565b9150614315826142d4565b600582019050919050565b600061432c82846142a3565b9150614337826142fd565b915081905092915050565b7f4552433732313a206f70657261746f7220717565727920666f72206e6f6e657860008201527f697374656e7420746f6b656e0000000000000000000000000000000000000000602082015250565b600061439e602c8361339f565b91506143a982614342565b604082019050919050565b600060208201905081810360008301526143cd81614391565b9050919050565b7f4552433732313a207472616e73666572206f6620746f6b656e2074686174206960008201527f73206e6f74206f776e0000000000000000000000000000000000000000000000602082015250565b600061443060298361339f565b915061443b826143d4565b604082019050919050565b6000602082019050818103600083015261445f81614423565b9050919050565b7f4552433732313a207472616e7366657220746f20746865207a65726f2061646460008201527f7265737300000000000000000000000000000000000000000000000000000000602082015250565b60006144c260248361339f565b91506144cd82614466565b604082019050919050565b600060208201905081810360008301526144f1816144b5565b9050919050565b7f4e487b7100000000000000000000000000000000000000000000000000000000600052601160045260246000fd5b6000614532826132fd565b915061453d836132fd565b9250828210156145505761454f6144f8565b5b828203905092915050565b6000614566826132fd565b9150614571836132fd565b9250827fffffffffffffffffffffffffffffffffffffffffffffffffffffffffffffffff038211156145a6576145a56144f8565b5b828201905092915050565b7f416363657373436f6e74726f6c3a206163636f756e7420000000000000000000600082015250565b60006145e7601783614298565b91506145f2826145b1565b601782019050919050565b7f206973206d697373696e6720726f6c6520000000000000000000000000000000600082015250565b6000614633601183614298565b915061463e826145fd565b601182019050919050565b6000614654826145da565b915061466082856142a3565b915061466b82614626565b915061467782846142a3565b91508190509392505050565b7f5061757361626c653a206e6f7420706175736564000000000000000000000000600082015250565b60006146b960148361339f565b91506146c482614683565b602082019050919050565b600060208201905081810360008301526146e8816146ac565b9050919050565b7f4552433732313a206d696e7420746f20746865207a65726f2061646472657373600082015250565b600061472560208361339f565b9150614730826146ef565b602082019050919050565b6000602082019050818103600083015261475481614718565b9050919050565b7f4552433732313a20746f6b656e20616c7265616479206d696e74656400000000600082015250565b6000614791601c8361339f565b915061479c8261475b565b602082019050919050565b600060208201905081810360008301526147c081614784565b9050919050565b7f5061757361626c653a2070617573656400000000000000000000000000000000600082015250565b60006147fd60108361339f565b9150614808826147c7565b602082019050919050565b6000602082019050818103600083015261482c816147f0565b9050919050565b7f4552433732313a20617070726f766520746f2063616c6c657200000000000000600082015250565b600061486960198361339f565b915061487482614833565b602082019050919050565b600060208201905081810360008301526148988161485c565b9050919050565b7f4552433732313a207472616e7366657220746f206e6f6e20455243373231526560008201527f63656976657220696d706c656d656e7465720000000000000000000000000000602082015250565b60006148fb60328361339f565b91506149068261489f565b604082019050919050565b6000602082019050818103600083015261492a816148ee565b9050919050565b7f4552433732314d657461646174613a2055524920717565727920666f72206e6f60008201527f6e6578697374656e7420746f6b656e0000000000000000000000000000000000602082015250565b600061498d602f8361339f565b915061499882614931565b604082019050919050565b600060208201905081810360008301526149bc81614980565b9050919050565b60006149cf82856142a3565b91506149db82846142a3565b91508190509392505050565b7f4169736874697369546f6b656e3a20546f6b656e206c6f636b65640000000000600082015250565b6000614a1d601b8361339f565b9150614a28826149e7565b602082019050919050565b60006020820190508181036000830152614a4c81614a10565b9050919050565b6000614a5e826132fd565b9150614a69836132fd565b9250817fffffffffffffffffffffffffffffffffffffffffffffffffffffffffffffffff0483118215151615614aa257614aa16144f8565b5b828202905092915050565b6000614ab8826132fd565b91506000821415614acc57614acb6144f8565b5b600182039050919050565b7f537472696e67733a20686578206c656e67746820696e73756666696369656e74600082015250565b6000614b0d60208361339f565b9150614b1882614ad7565b602082019050919050565b60006020820190508181036000830152614b3c81614b00565b9050919050565b600081519050919050565b600082825260208201905092915050565b6000614b6a82614b43565b614b748185614b4e565b9350614b848185602086016133b0565b614b8d816133e3565b840191505092915050565b6000608082019050614bad6000830187613481565b614bba6020830186613481565b614bc76040830185613517565b8181036060830152614bd98184614b5f565b905095945050505050565b600081519050614bf38161326e565b92915050565b600060208284031215614c0f57614c0e613238565b5b6000614c1d84828501614be4565b91505092915050565b6000614c31826132fd565b91507fffffffffffffffffffffffffffffffffffffffffffffffffffffffffffffffff821415614c6457614c636144f8565b5b600182019050919050565b7f4e487b7100000000000000000000000000000000000000000000000000000000600052601260045260246000fd5b6000614ca9826132fd565b9150614cb4836132fd565b925082614cc457614cc3614c6f565b5b828204905092915050565b6000614cda826132fd565b9150614ce5836132fd565b925082614cf557614cf4614c6f565b5b828206905092915050565b7f4e487b7100000000000000000000000000000000000000000000000000000000600052603160045260246000fd5b7f4552433732315061757361626c653a20746f6b656e207472616e73666572207760008201527f68696c6520706175736564000000000000000000000000000000000000000000602082015250565b6000614d8b602b8361339f565b9150614d9682614d2f565b604082019050919050565b60006020820190508181036000830152614dba81614d7e565b905091905056fea2646970667358221220e8937c07ba9b4605d69ba02b7cfdc7daeee247c4924140c94fbfa8e7d6a3fd1e64736f6c634300080a0033",
  "immutableReferences": {},
  "source": "// SPDX-License-Identifier: MIT\npragma solidity 0.8.10;\n\nimport \"@openzeppelin/contracts/token/ERC721/presets/ERC721PresetMinterPauserAutoId.sol\";\nimport \"@openzeppelin/contracts/utils/Counters.sol\";\n\ncontract AisthisiToken is ERC721PresetMinterPauserAutoId {\n    using Counters for Counters.Counter;\n    Counters.Counter private _tokenIds;\n\n    mapping (uint => uint) public tokenLockedFromTimestamp;\n    mapping (uint => bytes32) public tokenUnlockCodeHashes;\n    mapping (uint => bool) public tokenUnlocked;\n\n    event TokenUnlocked(uint tokenId, address unlockerAddress);\n\n    constructor() ERC721PresetMinterPauserAutoId(\"AisthisiToken\", \"AIS\", \"https://aisthisi.art/metadata/\") {}\n\n    function _beforeTokenTransfer(address from, address to, uint256 tokenId) internal override {\n        require(tokenLockedFromTimestamp[tokenId] > block.timestamp || tokenUnlocked[tokenId], \"AishtisiToken: Token locked\");\n        super._beforeTokenTransfer(from, to, tokenId);\n    }\n\n    function unlockToken(bytes32 unlockHash, uint256 tokenId) public {\n        require(msg.sender == ownerOf(tokenId), \"AishtisiToken: Only the Owner can unlock the Token\"); //not 100% sure about that one yet\n        require(keccak256(abi.encode(unlockHash)) == tokenUnlockCodeHashes[tokenId], \"AishtisiToken: Unlock Code Incorrect\");\n        tokenUnlocked[tokenId] = true;\n        emit TokenUnlocked(tokenId, msg.sender);\n    }\n\n    /**\n    * This one is the mint function that sets the unlock code, then calls the parent mint\n    */\n    function mint(address to, uint lockedFromTimestamp, bytes32 unlockHash) public {\n        tokenLockedFromTimestamp[_tokenIds.current()] = lockedFromTimestamp;\n        tokenUnlockCodeHashes[_tokenIds.current()] = unlockHash;\n        _tokenIds.increment();\n        super.mint(to);\n    }\n\n    function tokenURI(uint256 tokenId) public view virtual override returns (string memory) {\n    return string(abi.encodePacked(super.tokenURI(tokenId),\".json\"));\n    }\n}",
  "sourcePath": "/Users/kenneththomas/Documents/programming/blockchainLearn/firstNFT/contracts/AisthisiToken.sol",
  "compiler": {
    "name": "solc",
    "version": "0.8.10+commit.fc410830.Emscripten.clang"
  },
  "schemaVersion": "3.4.3",
  "updatedAt": "2021-12-02T21:43:14.891Z",
  "networkType": "ethereum",
  "devdoc": {
    "kind": "dev",
    "methods": {
      "approve(address,uint256)": {
        "details": "See {IERC721-approve}."
      },
      "balanceOf(address)": {
        "details": "See {IERC721-balanceOf}."
      },
      "burn(uint256)": {
        "details": "Burns `tokenId`. See {ERC721-_burn}. Requirements: - The caller must own `tokenId` or be an approved operator."
      },
      "getApproved(uint256)": {
        "details": "See {IERC721-getApproved}."
      },
      "getRoleAdmin(bytes32)": {
        "details": "Returns the admin role that controls `role`. See {grantRole} and {revokeRole}. To change a role's admin, use {_setRoleAdmin}."
      },
      "getRoleMember(bytes32,uint256)": {
        "details": "Returns one of the accounts that have `role`. `index` must be a value between 0 and {getRoleMemberCount}, non-inclusive. Role bearers are not sorted in any particular way, and their ordering may change at any point. WARNING: When using {getRoleMember} and {getRoleMemberCount}, make sure you perform all queries on the same block. See the following https://forum.openzeppelin.com/t/iterating-over-elements-on-enumerableset-in-openzeppelin-contracts/2296[forum post] for more information."
      },
      "getRoleMemberCount(bytes32)": {
        "details": "Returns the number of accounts that have `role`. Can be used together with {getRoleMember} to enumerate all bearers of a role."
      },
      "grantRole(bytes32,address)": {
        "details": "Grants `role` to `account`. If `account` had not been already granted `role`, emits a {RoleGranted} event. Requirements: - the caller must have ``role``'s admin role."
      },
      "hasRole(bytes32,address)": {
        "details": "Returns `true` if `account` has been granted `role`."
      },
      "isApprovedForAll(address,address)": {
        "details": "See {IERC721-isApprovedForAll}."
      },
      "mint(address)": {
        "details": "Creates a new token for `to`. Its token ID will be automatically assigned (and available on the emitted {IERC721-Transfer} event), and the token URI autogenerated based on the base URI passed at construction. See {ERC721-_mint}. Requirements: - the caller must have the `MINTER_ROLE`."
      },
      "name()": {
        "details": "See {IERC721Metadata-name}."
      },
      "ownerOf(uint256)": {
        "details": "See {IERC721-ownerOf}."
      },
      "pause()": {
        "details": "Pauses all token transfers. See {ERC721Pausable} and {Pausable-_pause}. Requirements: - the caller must have the `PAUSER_ROLE`."
      },
      "paused()": {
        "details": "Returns true if the contract is paused, and false otherwise."
      },
      "renounceRole(bytes32,address)": {
        "details": "Revokes `role` from the calling account. Roles are often managed via {grantRole} and {revokeRole}: this function's purpose is to provide a mechanism for accounts to lose their privileges if they are compromised (such as when a trusted device is misplaced). If the calling account had been revoked `role`, emits a {RoleRevoked} event. Requirements: - the caller must be `account`."
      },
      "revokeRole(bytes32,address)": {
        "details": "Revokes `role` from `account`. If `account` had been granted `role`, emits a {RoleRevoked} event. Requirements: - the caller must have ``role``'s admin role."
      },
      "safeTransferFrom(address,address,uint256)": {
        "details": "See {IERC721-safeTransferFrom}."
      },
      "safeTransferFrom(address,address,uint256,bytes)": {
        "details": "See {IERC721-safeTransferFrom}."
      },
      "setApprovalForAll(address,bool)": {
        "details": "See {IERC721-setApprovalForAll}."
      },
      "supportsInterface(bytes4)": {
        "details": "See {IERC165-supportsInterface}."
      },
      "symbol()": {
        "details": "See {IERC721Metadata-symbol}."
      },
      "tokenByIndex(uint256)": {
        "details": "See {IERC721Enumerable-tokenByIndex}."
      },
      "tokenOfOwnerByIndex(address,uint256)": {
        "details": "See {IERC721Enumerable-tokenOfOwnerByIndex}."
      },
      "tokenURI(uint256)": {
        "details": "See {IERC721Metadata-tokenURI}."
      },
      "totalSupply()": {
        "details": "See {IERC721Enumerable-totalSupply}."
      },
      "transferFrom(address,address,uint256)": {
        "details": "See {IERC721-transferFrom}."
      },
      "unpause()": {
        "details": "Unpauses all token transfers. See {ERC721Pausable} and {Pausable-_unpause}. Requirements: - the caller must have the `PAUSER_ROLE`."
      }
    },
    "version": 1
  },
  "userdoc": {
    "kind": "user",
    "methods": {
      "mint(address,uint256,bytes32)": {
        "notice": "This one is the mint function that sets the unlock code, then calls the parent mint"
      }
    },
    "version": 1
  }
}